:100000000C942A000C9434000C9434000C943400AA
:100010000C9434000C9434000C9434000C94340090
:100020000C9434000C9434000C9434000C94340080
:100030000C9434000C9434000C9434000C94340070
:100040000C9434000C9434000C9434000C94340060
:100050000C94340011241FBECFE5D4E0DEBFCDBF29
:100060000E9455000C94B7010C940000AF9A0895BB
:10007000AF980895AF9B02C0AF980895AF9A0895C6
:10008000AE9A0895AE980895AE9B02C0AE980895BA
:10009000AE9A089580B382958695869583708095F3
:1000A0008170089580B380740895CF92DF92EF92AB
:1000B000FF920F931F93DF93CF93CDB7DEB72797B0
:1000C0000FB6F894DEBF0FBECDBFA69AA79A969A38
:1000D000789487E886B9AF9A8CE00E9438017E0157
:1000E0000894E11CF11C80E9C82E81E0D82E17B8D5
:1000F000369A3699FECF04B115B10E940F01C8019E
:10010000B7014AE050E00E947201C7010E942C0131
:1001100088EE93E0F6013197F1F70197D9F7E7CF31
:10012000662311F0C09A01C0C098C198BC9ABD9ACC
:10013000BE9ABF9AC798C698C598C49887FDC79AB3
:1001400086FDC69A85FDC59A84FDC49AC29A00C0F0
:10015000C298C798C698C598C49883FDC79A82FD6F
:10016000C69A81FDC59A80FDC49AC29A00C0C29801
:10017000C49AC59AC69AC79A0895882311F0C09A5E
:1001800001C0C098C19ABC98BD98BE98BF98C29A49
:1001900000C0B49B02C080E101C080E0B5998062DC
:1001A000B6998064B7998068C29800C0C29A00C0AE
:1001B000B4998160B5998260B6998460B799886076
:1001C000C298089580E00E94BD0087FDFBCF88E0C3
:1001D00090E00197F1F780E00E94BD0008951F9321
:1001E000182F0E94E200812F60E00E9490001F9172
:1001F00008951F93182F0E94E200812F61E00E9452
:1002000090001F910895662311F4805801C0805416
:100210000E94EF0008950E94E20090E0089581E0BE
:100220000E94EF00089582E00E94EF0008951F935E
:10023000182F0E94E2001A3049F4803410F080E058
:1002400001C080E480580E94EF0004C0812F61E06B
:100250000E9490001F910895CF93DF93EC0102C09C
:100260000E94170189918823D9F7DF91CF910895D2
:100270001F93182FB89AB99ABA9ABC9ABD9ABE9A87
:10028000BF9A80E09AEF0197F1F7C59AC49AC29A93
:1002900000C0C29880E09EE40197F1F7C29A00C0C6
:1002A000C29880E091E0FC013197F1F7C29A00C05A
:1002B000C298FC013197F1F7C498C29A00C0C29865
:1002C0000197F1F788E20E94EF0088E00E94EF00BA
:1002D0000E940F0186E00E94EF00812F0E94EF0034
:1002E0001F910895FB019F01E8944230C4F045320C
:1002F000B4F44A3029F497FB1EF4909581959F4FF2
:10030000642F77270E94A301805D8A330CF0895DFA
:100310008193CB010097A1F716F45DE2519310820F
:10032000C9010C949301DC01FC01672F71917723C3
:10033000E1F7329704C07C916D9370836291AE17A0
:10034000BF07C8F30895AA1BBB1B51E107C0AA1F32
:10035000BB1FA617B70710F0A61BB70B881F991F66
:100360005A95A9F780959095BC01CD010895F89410
:02037000FFCFBD
:00000001FF
