:100000000C942A000C9434000C9434000C943400AA
:100010000C9434000C9434000C9434000C94340090
:100020000C9434000C9434000C9434000C94340080
:100030000C9434000C9434000C9434000C94340070
:100040000C9434000C9434000C9434000C94340060
:100050000C94340011241FBECFE5D4E0DEBFCDBF29
:100060000E9455000C9465000C940000AF9A08950E
:10007000AF980895AF9B02C0AF980895AF9A0895C6
:10008000AE9A0895AE980895AE9B02C0AE980895BA
:10009000AE9A089580B382958695869583708095F3
:1000A0008170089580B380740895A69AA79A969A4D
:1000B0007894AF9A20E23EE4869902C0AE9A01C0DD
:0E00C000AE98C9010197F1F7F7CFF894FFCF82
:00000001FF
