:100000000C942A000C943F000C943F000C943F0089
:100010000C943F000C943F000C943F000C943F0064
:100020000C943F000C943F000C943F000C943F0054
:100030000C943F000C943F000C943F000C943F0044
:100040000C943F000C943F000C943F000C943F0034
:100050000C943F0011241FBECFE5D4E0DEBFCDBF1E
:1000600010E0A0E6B0E0E6EAF3E002C005900D92F1
:10007000A638B107D9F70E9460000C94D1010C9406
:100080000000AF9A0895AF980895AF9B02C0AF9853
:100090000895AF9A0895AE9A0895AE980895AE9BCC
:1000A00002C0AE980895AE9A089580B38295869561
:1000B0008695837080958170089580B380740895CB
:1000C000EF92FF920F931F93DF93CF93CDB7DEB7DD
:1000D00027970FB6F894DEBF0FBECDBFA69AA79A9A
:1000E000969A7894AF9A8CE00E94520180E9E82EAB
:1000F00081E0F82E8E010F5F1F4F0E94290180E6DC
:1001000090E00E94460180E790E00E94460180E076
:1001100061E00E941D0181E890E00E94460180E5B7
:1001200093ECF7013197F1F70197D9F70E94290174
:1001300086E890E0B8014AE050E00E948C01C801D6
:100140000E94460180E593ECF7013197F1F70197A2
:10015000D9F7D3CF662311F0C09A01C0C098C198D7
:10016000BC9ABD9ABE9ABF9AC798C698C598C498BB
:1001700087FDC79A86FDC69A85FDC59A84FDC49AF7
:10018000C29A00C0C298C798C698C598C49883FD03
:10019000C79A82FDC69A81FDC59A80FDC49AC29A0B
:1001A00000C0C298C49AC59AC69AC79A089588236F
:1001B00011F0C09A01C0C098C19ABC98BD98BE9871
:1001C000BF98C29A00C0B49B02C080E101C080E029
:1001D000B5998062B6998064B7998068C29800C06A
:1001E000C29A00C0B4998160B5998260B699846062
:1001F000B7998860C298089580E00E94D70087FD73
:10020000FBCF88E090E00197F1F780E00E94D700F3
:1002100008951F93182F0E94FC00812F60E00E9418
:10022000AA001F9108951F93182F0E94FC00812F90
:1002300061E00E94AA001F910895662311F480587E
:1002400001C080540E94090108950E94FC0090E0C2
:10025000089581E00E940901089582E00E94090149
:1002600008951F93182F0E94FC001A3049F480341F
:1002700010F080E001C080E480580E94090104C0B1
:10028000812F61E00E94AA001F910895CF93DF9310
:10029000EC0102C00E94310189918823D9F7DF91D6
:1002A000CF9108951F93182FB89AB99ABA9ABC9A09
:1002B000BD9ABE9ABF9A80E09AEF0197F1F7C59A6E
:1002C000C49AC29A00C0C29880E09EE40197F1F7F8
:1002D000C29A00C0C29880E091E0FC013197F1F72A
:1002E000C29A00C0C298FC013197F1F7C498C29A33
:1002F00000C0C2980197F1F788E20E94090188E0E6
:100300000E9409010E94290186E00E940901812FB3
:100310000E9409011F910895FB019F01E89442305A
:10032000C4F04532B4F44A3029F497FB1EF490959A
:1003300081959F4F642F77270E94BD01805D8A338E
:100340000CF0895D8193CB010097A1F716F45DE273
:1003500051931082C9010C94AD01DC01FC01672F9F
:1003600071917723E1F7329704C07C916D9370838C
:100370006291AE17BF07C8F30895AA1BBB1B51E1DA
:1003800007C0AA1FBB1FA617B70710F0A61BB70B05
:10039000881F991F5A95A9F780959095BC01CD01AA
:0603A0000895F894FFCF60
:1003A600524F424F4B49545320494E4449410A004B
:1003B60020202020524F424F4B4954532E4F524734
:0603C600005757572E00FE
:00000001FF
