:100000000C942A000C9434000C9434000C943400AA
:100010000C9434000C9434000C9434000C94340090
:100020000C9434000C9434000C9434000C94340080
:100030000C9434000C9434000C9434000C94340070
:100040000C9434000C9434000C9434000C94340060
:100050000C94340011241FBECFE5D4E0DEBFCDBF29
:100060000E9455000C948B000C940000AF9A0895E8
:10007000AF980895AF9B02C0AF980895AF9A0895C6
:10008000AE9A0895AE980895AE9B02C0AE980895BA
:10009000AE9A089580B382958695869583708095F3
:1000A0008170089580B380740895A69AA79A969A4D
:1000B0007894D09AAF9A20E030E0A0E4BFE140E924
:1000C00051E060EA7FE00EC0D89ACD010197F1F7C8
:1000D000D89884EB90E0FA013197F1F70197D9F7BE
:1000E0002F5F3F4F223331057CF320E030E0D89A78
:1000F000CB010197F1F7D8988EEB90E0FA01319798
:10010000F1F70197D9F72F5F3F4F2233310579F788
:0A01100020E030E0E7CFF894FFCFC5
:00000001FF
