:100000000C942A000C9434000C9434000C943400AA
:100010000C9434000C9434000C9434000C94340090
:100020000C9434000C9434000C9434000C94340080
:100030000C9434000C9434000C9434000C94340070
:100040000C9434000C9434000C9434000C94340060
:100050000C94340011241FBECFE5D4E0DEBFCDBF29
:100060000E9455000C94C3000C940000AF9A0895B0
:10007000AF980895AF9B02C0AF980895AF9A0895C6
:10008000AE9A0895AE980895AE9B02C0AE980895BA
:10009000AE9A089580B382958695869583708095F3
:1000A0008170089580B380740895CF93DF93A69AEA
:1000B000A79A969A7894AF9A81EA8FBD8AE08EBD0E
:1000C0001BBC1ABC19BC18BCAA9AAB9A8C9A8D9A04
:1000D000A29AA39A20E931E0C0E4D0E0AFEFB0E00B
:1000E00060EC70E040E850E0AA98AB981BBC1ABCEA
:1000F00019BC18BC80E593ECF9013197F1F7019731
:10010000D9F7AA98AB98DBBDCABDD9BDC8BD80E5FB
:1001100093ECF9013197F1F70197D9F7AA98AB98C9
:10012000BBBDAABDB9BDA8BD80E593ECF90131976F
:10013000F1F70197D9F7AA98AB987BBD6ABD79BD55
:1001400068BD80E593ECF9013197F1F70197D9F794
:10015000AA98AB985BBD4ABD59BD48BD80E593ECFC
:10016000F9013197F1F70197D9F7AA9AAB9A1BBC1D
:100170001ABC19BC18BC80E593ECF9013197F1F772
:0A0180000197D9F7B1CFF894FFCF33
:00000001FF
