:100000000C942A000C943C000C943C000C943C0092
:100010000C943C000C943C000C943C000C943C0070
:100020000C943C000C943C000C943C000C94C800D4
:100030000C94F2000C943C000C943C000C943C009A
:100040000C943C000C943C000C943C000C943C0040
:100050000C943C0011241FBECFE5D4E0DEBFCDBF21
:1000600010E0A0E6B0E001C01D92A53AB107E1F7AB
:100070000E943E000C94BB020C940000DF92EF92B1
:10008000FF920F931F93CF93DF93A69AA79A969A06
:10009000789460E875E280E090E00E94170181EAC0
:1000A0008FBD8AE08EBD1BBC1ABC19BC18BCAA9AB5
:1000B000AB9A8C9A8D9AA29AA39A80E03AE0D32EBA
:1000C000C4E6D0E002C00E9440018737E1F70E94F9
:1000D0005D0180E002C00E94400120EDE22EE80EAA
:1000E00099E09E15C0F30E945D0180E002C00E946D
:1000F0004001082F00530A30D0F70E945D0180E0D4
:1001000002C00E94400190EDF92EF80E99E09F1573
:10011000C0F30E945D0180E002C00E944001182FE0
:1001200010531A30D0F70E945D01AA98AB98ED9C4D
:10013000C0011124BE01681B790B601B710988275F
:1001400077FD8095982F0E94AA012AE037ED43EAB7
:100150005FE30E940E020E947C017BBD6ABDFD9C94
:10016000C0011124BE01681B790B611B710988272E
:1001700077FD8095982F0E94AA012AE037ED43EA87
:100180005FE30E940E020E947C0179BD68BD9BCF97
:100190001F920F920FB60F9211242F938F939F935C
:1001A000EF93FF939BB12CB1E091A200EF5FEF7151
:1001B0008091A300E81711F482E008C0892F8871AC
:1001C000E093A200F0E0E058FF4F20838093A4006A
:1001D000FF91EF919F918F912F910F900FBE0F90F4
:1001E0001F9018951F920F920FB60F9211248F93A4
:1001F0009F93EF93FF939091A0008091A100981797
:1002000061F0E091A100EF5FEF71E093A100F0E0F9
:10021000E05AFF4F80818CB901C05598FF91EF9152
:100220009F918F910F900FBE0F901F9018959B017B
:10023000AC011092A0001092A1001092A2001092A6
:10024000A30082E08BB963E0220F331F441F551FC8
:100250006A95D1F760E074E284EF90E00E94990221
:10026000C901DA010197A109B109292F3A2F4B2FB2
:10027000552720BD89B988E98AB986E880BD0895E7
:100280009091A2008091A300981719F420E031E02A
:1002900012C0E091A300EF5FEF71E093A300F0E0E4
:1002A000E058FF4F30812091A400922F80E0AC01F4
:1002B000430F511D9A01C9010895282F9091A00064
:1002C0009F5F9F718091A1009817E1F3E92FF0E003
:1002D000E05AFF4F20839093A000559A0895CF9342
:1002E000DF93EC0103C021960E945D018881882381
:1002F000D1F7DF91CF91089570D088F09F5790F09B
:10030000B92F9927B751A0F0D1F0660F771F881F3A
:10031000991F1AF0BA95C9F712C0B13081F077D0A1
:10032000B1E0089574C0672F782F8827B85F39F03F
:10033000B93FCCF3869577956795B395D9F73EF499
:1003400090958095709561957F4F8F4F9F4F089541
:10035000E89409C097FB3EF490958095709561955F
:100360007F4F8F4F9F4F9923A9F0F92F96E9BB2715
:100370009395F695879577956795B795F111F8CF91
:10038000FAF4BB0F11F460FF1BC06F5F7F4F8F4FFC
:100390009F4F16C0882311F096E911C0772321F0F2
:1003A0009EE8872F762F05C0662371F096E8862F8A
:1003B00070E060E02AF09A95660F771F881FDAF7E1
:1003C000880F9695879597F9089557FD9058440F93
:1003D000551F59F05F3F71F04795880F97FB991FA4
:1003E00061F09F3F79F08795089512161306140661
:1003F000551FF2CF4695F1DF08C0161617061806EE
:10040000991FF1CF86957105610508940895E894C8
:10041000BB2766277727CB0197F908950BD078C0C3
:1004200069D028F06ED018F0952309F05AC05FC04B
:100430001124EECFCADFA0F3959FD1F3950F50E0C2
:10044000551F629FF001729FBB27F00DB11D639F86
:10045000AA27F00DB11DAA1F649F6627B00DA11D2C
:10046000661F829F2227B00DA11D621F739FB00DD2
:10047000A11D621F839FA00D611D221F749F332742
:10048000A00D611D231F849F600D211D822F762FDB
:100490006A2F11249F5750408AF0E1F088234AF0D8
:1004A000EE0FFF1FBB1F661F771F881F9150504024
:1004B000A9F79E3F510570F014C0AACF5F3FECF33F
:1004C000983EDCF3869577956795B795F795E79510
:1004D0009F5FC1F7FE2B880F911D9695879597F921
:1004E000089597F99F6780E870E060E008959FEFB6
:1004F00080EC089500240A941616170618060906BB
:10050000089500240A941216130614060506089589
:10051000092E0394000C11F4882352F0BB0F40F411
:10052000BF2B11F460FF04C06F5F7F4F8F4F9F4F51
:100530000895A1E21A2EAA1BBB1BFD010DC0AA1F24
:10054000BB1FEE1FFF1FA217B307E407F50720F03C
:10055000A21BB30BE40BF50B661F771F881F991FB7
:100560001A9469F760957095809590959B01AC0100
:0A057000BD01CF010895F894FFCFFC
:00000001FF
